:100000001DC037C036C035C034C03EC232C031C05A
:1000100030C02FC0CBC02DC02CC035C151C1010292
:100020000000040001020408102002020202020281
:1000300000000000380000000000370011241FBE3F
:10004000CFE5D2E0DEBFCDBF10E0A0E6B0E0EEE944
:10005000F6E002C005900D92A436B107D9F720E072
:10006000A4E6B0E001C01D92AE39B207E1F7FED2BE
:1000700014C3C6CF80916500813129F0823131F0FF
:100080006091630005C06091660002C060916200EB
:1000900080E990E0CCC1CF93DF93CFEFC80FC031A0
:1000A000E0F580E990E0C5D180936500CC23A9F10B
:1000B000D0EC809165008131C1F08231F9F080315E
:1000C00039F580E990E0B5D18093630080916300B9
:1000D00090E060EC70E0D0D290936100809161007C
:1000E0009D2F981B9093600016C080E990E0A1D1ED
:1000F000809366006091660083E008C080E990E02C
:1001000098D1809362006091620084E078D203C04D
:1001100080E990E08ED1C15061F6DF91CF910895D2
:10012000882321F060E081E06AD20AC080916400F7
:10013000811106C081E0809364008091610004C059
:10014000109264008091600089BD82E18ABD83E0E5
:1001500083BF89B7806189BF12BE88B78F7E88BF91
:1001600088B7877F88BF089561E081E00FD260E0A3
:1001700081E045D261E083E009D260E083E03FD2D4
:1001800061E084E003D260E084E039D26DE280E98E
:1001900090E04BD16BE470E080E990E04BD16AE3F2
:1001A00070E080E990E04BD181E0BACF1F920F92CE
:1001B0000FB60F9211242F933F934F935F936F933A
:1001C0007F938F939F93AF93BF93EF93FF9380E0C1
:1001D000A7DFFF91EF91BF91AF919F918F917F9199
:1001E0006F915F914F913F912F910F900FBE0F90A4
:1001F0001F90189529C110927B0010927C001092DC
:100200007A00109268001092690010926700809343
:100210008F0087B3856087BBC29AC09AB89888EA76
:100220008DB980EF8EB90895909167009031E1F318
:10023000E0916900F0E0E659FF4F8083809169000A
:100240008F5F8F7080936900809167008F5F8093CC
:100250006700089580917A008823E1F3E0917B00A4
:10026000F0E0E358FF4F808190917B009F5F9F708B
:1002700090937B0090917A00915090937A0008952A
:1002800080917A0008951F920F920FB60F92112459
:100290008F9310928E0010928D00B898B29B02C07E
:1002A000B09BFCCFB09902C088EF01C088EA8DB93D
:1002B00080EF8EB98F910F900FBE0F901F90189501
:1002C0001F920F920FB60F9211242F933F934F93CB
:1002D0005F936F937F938F939F93AF93BF93EF93AE
:1002E000FF9380918D0090918E008230910509F4EA
:1002F00059C028F4009761F0019779F185C08430E6
:10030000910509F458C030F1059709F45DC07CC02F
:100310008FB1882331F08FB1869590918F0089132A
:100320003EC0789B67C0E0919100F09192003097B9
:1003300039F080917A00882319F080917A0009952C
:10034000E0919300F0919400309709F0099581E0D5
:1003500090E052C08FB1811122C080916700882344
:10036000D1F0E0916800F0E0E659FF4F80818FB94D
:10037000809168008F5F8F70809368008091670024
:1003800081508093670082E090E090938E0080938C
:100390008D00B89A17C0B8981FB88EE78EB988EA52
:1003A0008DB910C083E090E090938E0080938D0013
:1003B000B8981FB827C085E090E090938E00809396
:1003C0008D00B89880E71FC080917A00803190F44A
:1003D000E0917C008FB1F0E0E358FF4F8083809183
:1003E0007C008F5F8F7080937C0080917A008F5F9C
:1003F00080937A0084E090E090938E0080938D004B
:100400001FB8B89A8EE78EB9FF91EF91BF91AF9167
:100410009F918F917F916F915F914F913F912F911C
:100420000F900FBE0F901F901895862FE4CE862F49
:10043000FBCE10CF7093920060939100089570935B
:1004400094006093930008958091910090919200A0
:10045000892B51F0759B08C013DF882329F0E091A8
:100460009100F09192000994089580B7807F80BF39
:1004700080B7806880BF8CB580648CBD8FEF8DBDE8
:1004800080B7876080BF08951F920F920FB60F92BA
:1004900011242F933F938F939F93AF93BF9380919A
:1004A000960090919700A0919800B091990030919A
:1004B000950026E0230F2D3730F029E8230F03960F
:1004C000A11DB11D03C00296A11DB11D2093950071
:1004D0008093960090939700A0939800B093990012
:1004E00080919A0090919B00A0919C00B0919D00FA
:1004F0000196A11DB11D80939A0090939B00A0933B
:100500009C00B0939D00BF91AF919F918F913F91BF
:100510002F910F900FBE0F901F9018958AB5826093
:100520008ABD8AB581608ABD83B7887F836083BFB7
:10053000789489B7826089BF98DF86B188778668AA
:1005400086B9379A0895813031F48AB58F778ABD9C
:100550008AB58F7B07C0823039F48AB58F7D8ABD1A
:100560008AB58F7E8ABD0895833039F480B78F7D38
:1005700080BF80B78F7E80BF0895843031F48CB502
:100580008F7D8CBD8CB58F7E8CBD0895CF93DF930E
:1005900090E0FC01EC5DFF4F2491FC01E65DFF4F14
:1005A0008491882349F190E0880F991FFC01EA5C4F
:1005B000FF4FA591B491805D9F4FFC01C591D491EF
:1005C0009FB7611108C0F8948C91209582238C9379
:1005D000888182230AC0623051F4F8948C91322FC2
:1005E000309583238C938881822B888304C0F89470
:1005F0008C91822B8C939FBFDF91CF9108950F93A5
:100600001F93CF93DF931F92CDB7DEB7282F30E033
:10061000F901E25EFF4F8491F901EC5DFF4F149107
:10062000F901E65DFF4F04910023D1F0882319F012
:10063000698389DF6981E02FF0E0EE0FFF1FE05D45
:10064000FF4FA591B4919FB7611105C0F8948C91AB
:100650001095812303C0F8948C91812B8C939FBFBC
:100660000F90DF91CF911F910F91089581B781BFB6
:1006700055DF7ADDBFDDFECF0024552704C0080E0C
:10068000591F880F991F009729F076956795B8F341
:0E0690007105B9F7802D952F0895F894FFCFCE
:04069E006060018017
:00000001FF
